{
  "address": "0x1418b5e79eE53396dE4a454d78DF2ab522CE24CC",
  "abi": [
    {
      "inputs": [
        {
          "internalType": "uint8",
          "name": "name",
          "type": "uint8"
        },
        {
          "internalType": "uint256[]",
          "name": "publicSignals",
          "type": "uint256[]"
        }
      ],
      "name": "getPublicSignal",
      "outputs": [
        {
          "internalType": "uint256",
          "name": "",
          "type": "uint256"
        }
      ],
      "stateMutability": "pure",
      "type": "function"
    }
  ],
  "transactionHash": "0x703b88d53797b157f9459406cd838fdf3e45ff8efa18b12941a8dac6f6d44624",
  "args": [],
  "numDeployments": 1,
  "solcInputHash": "bc078363460d61dedeec968994d22b1e",
  "bytecode": "0x608060405234801561001057600080fd5b5061012d806100206000396000f3fe608060405234801561001057600080fd5b506004361061002b5760003560e01c8063c4eee2ea14610030575b600080fd5b61004361003e36600461007c565b610055565b60405190815260200160405180910390f35b600082828560ff1681811061006c5761006c61010a565b9050602002013590509392505050565b60008060006040848603121561009157600080fd5b833560ff811681146100a257600080fd5b9250602084013567ffffffffffffffff808211156100bf57600080fd5b818601915086601f8301126100d357600080fd5b8135818111156100e257600080fd5b8760208260051b85010111156100f757600080fd5b6020830194508093505050509250925092565b634e487b7160e01b600052603260045260246000fdfea164736f6c6343000817000a",
  "devdoc": {
    "kind": "dev",
    "methods": {
      "getPublicSignal(uint8,uint256[])": {
        "details": "Implements the getPublicSignal function from the IPublicSignalGetter interface.",
        "params": {
          "name": "The signal name, represented as the given enum (converted to uint8).",
          "publicSignals": "The public signals, as an array of uints."
        },
        "returns": {
          "_0": "The public signal associated with the given name."
        }
      }
    },
    "version": 1
  },
  "userdoc": {
    "kind": "user",
    "methods": {},
    "version": 1
  },
  "storageLayout": {
    "storage": [],
    "types": null
  }
}