{
  "address": "0x217F3a88653F84C26ce159BC5417d9A54e6eA7F1",
  "abi": [
    {
      "inputs": [
        {
          "internalType": "contract IUpaVerifier",
          "name": "upaVerifier",
          "type": "address"
        },
        {
          "internalType": "contract ITypeRegistry",
          "name": "typeRegistry",
          "type": "address"
        },
        {
          "internalType": "contract IIssuerRegistry",
          "name": "issuerRegistry",
          "type": "address"
        },
        {
          "internalType": "address",
          "name": "admin",
          "type": "address"
        }
      ],
      "stateMutability": "nonpayable",
      "type": "constructor"
    },
    {
      "inputs": [
        {
          "internalType": "string",
          "name": "message",
          "type": "string"
        }
      ],
      "name": "InvalidArgument",
      "type": "error"
    },
    {
      "anonymous": false,
      "inputs": [
        {
          "indexed": false,
          "internalType": "contract IIssuerRegistry",
          "name": "oldIssuerRegistry",
          "type": "address"
        },
        {
          "indexed": false,
          "internalType": "contract IIssuerRegistry",
          "name": "newIssuerRegistry",
          "type": "address"
        }
      ],
      "name": "IssuerRegistryUpdated",
      "type": "event"
    },
    {
      "anonymous": false,
      "inputs": [
        {
          "indexed": true,
          "internalType": "address",
          "name": "previousOwner",
          "type": "address"
        },
        {
          "indexed": true,
          "internalType": "address",
          "name": "newOwner",
          "type": "address"
        }
      ],
      "name": "OwnershipTransferred",
      "type": "event"
    },
    {
      "anonymous": false,
      "inputs": [
        {
          "indexed": false,
          "internalType": "contract ITypeRegistry",
          "name": "oldTypeRegistry",
          "type": "address"
        },
        {
          "indexed": false,
          "internalType": "contract ITypeRegistry",
          "name": "newTypeRegistry",
          "type": "address"
        }
      ],
      "name": "TypeRegistryUpdated",
      "type": "event"
    },
    {
      "anonymous": false,
      "inputs": [
        {
          "indexed": false,
          "internalType": "contract IUpaVerifier",
          "name": "oldUpaVerifier",
          "type": "address"
        },
        {
          "indexed": false,
          "internalType": "contract IUpaVerifier",
          "name": "newUpaVerifier",
          "type": "address"
        }
      ],
      "name": "UpaVerifierUpdated",
      "type": "event"
    },
    {
      "inputs": [],
      "name": "STACK_ID",
      "outputs": [
        {
          "internalType": "uint8",
          "name": "",
          "type": "uint8"
        }
      ],
      "stateMutability": "view",
      "type": "function"
    },
    {
      "inputs": [],
      "name": "getIssuerRegistry",
      "outputs": [
        {
          "internalType": "contract IIssuerRegistry",
          "name": "",
          "type": "address"
        }
      ],
      "stateMutability": "view",
      "type": "function"
    },
    {
      "inputs": [],
      "name": "getTypeRegistry",
      "outputs": [
        {
          "internalType": "contract ITypeRegistry",
          "name": "",
          "type": "address"
        }
      ],
      "stateMutability": "view",
      "type": "function"
    },
    {
      "inputs": [],
      "name": "getUpaVerifier",
      "outputs": [
        {
          "internalType": "contract IUpaVerifier",
          "name": "",
          "type": "address"
        }
      ],
      "stateMutability": "view",
      "type": "function"
    },
    {
      "inputs": [],
      "name": "owner",
      "outputs": [
        {
          "internalType": "address",
          "name": "",
          "type": "address"
        }
      ],
      "stateMutability": "view",
      "type": "function"
    },
    {
      "inputs": [],
      "name": "renounceOwnership",
      "outputs": [],
      "stateMutability": "nonpayable",
      "type": "function"
    },
    {
      "inputs": [
        {
          "internalType": "address",
          "name": "newOwner",
          "type": "address"
        }
      ],
      "name": "transferOwnership",
      "outputs": [],
      "stateMutability": "nonpayable",
      "type": "function"
    },
    {
      "inputs": [
        {
          "internalType": "contract IIssuerRegistry",
          "name": "issuerRegistry",
          "type": "address"
        }
      ],
      "name": "updateIssuerRegistry",
      "outputs": [],
      "stateMutability": "nonpayable",
      "type": "function"
    },
    {
      "inputs": [
        {
          "internalType": "contract ITypeRegistry",
          "name": "typeRegistry",
          "type": "address"
        }
      ],
      "name": "updateTypeRegistry",
      "outputs": [],
      "stateMutability": "nonpayable",
      "type": "function"
    },
    {
      "inputs": [
        {
          "internalType": "contract IUpaVerifier",
          "name": "upaVerifier",
          "type": "address"
        }
      ],
      "name": "updateUpaVerifier",
      "outputs": [],
      "stateMutability": "nonpayable",
      "type": "function"
    },
    {
      "inputs": [
        {
          "internalType": "uint160",
          "name": "typeId",
          "type": "uint160"
        },
        {
          "internalType": "uint160",
          "name": "contextId",
          "type": "uint160"
        },
        {
          "internalType": "uint256",
          "name": "issuerId",
          "type": "uint256"
        },
        {
          "internalType": "uint256",
          "name": "circuitId",
          "type": "uint256"
        },
        {
          "internalType": "uint256[]",
          "name": "publicSignals",
          "type": "uint256[]"
        }
      ],
      "name": "verifyProofFull",
      "outputs": [
        {
          "internalType": "enum VerifyResult",
          "name": "",
          "type": "uint8"
        }
      ],
      "stateMutability": "view",
      "type": "function"
    },
    {
      "inputs": [
        {
          "internalType": "uint160",
          "name": "typeId",
          "type": "uint160"
        },
        {
          "internalType": "uint160",
          "name": "contextId",
          "type": "uint160"
        },
        {
          "internalType": "uint256",
          "name": "issuerId",
          "type": "uint256"
        },
        {
          "internalType": "uint256",
          "name": "circuitId",
          "type": "uint256"
        },
        {
          "internalType": "uint256[]",
          "name": "publicSignals",
          "type": "uint256[]"
        },
        {
          "components": [
            {
              "internalType": "bytes32",
              "name": "submissionId",
              "type": "bytes32"
            },
            {
              "internalType": "bytes32[]",
              "name": "merkleProof",
              "type": "bytes32[]"
            },
            {
              "internalType": "uint16",
              "name": "location",
              "type": "uint16"
            }
          ],
          "internalType": "struct ProofReference",
          "name": "proofReference",
          "type": "tuple"
        }
      ],
      "name": "verifyProofFullFromMultiProof",
      "outputs": [
        {
          "internalType": "enum VerifyResult",
          "name": "",
          "type": "uint8"
        }
      ],
      "stateMutability": "view",
      "type": "function"
    },
    {
      "inputs": [
        {
          "internalType": "uint160",
          "name": "typeId",
          "type": "uint160"
        },
        {
          "internalType": "uint160",
          "name": "contextId",
          "type": "uint160"
        },
        {
          "internalType": "uint256",
          "name": "keyId",
          "type": "uint256"
        },
        {
          "internalType": "uint256",
          "name": "circuitId",
          "type": "uint256"
        },
        {
          "internalType": "uint256[]",
          "name": "publicSignals",
          "type": "uint256[]"
        }
      ],
      "name": "verifyProofStatic",
      "outputs": [
        {
          "internalType": "enum VerifyResult",
          "name": "",
          "type": "uint8"
        }
      ],
      "stateMutability": "view",
      "type": "function"
    },
    {
      "inputs": [
        {
          "internalType": "uint160",
          "name": "typeId",
          "type": "uint160"
        },
        {
          "internalType": "uint160",
          "name": "contextId",
          "type": "uint160"
        },
        {
          "internalType": "uint256",
          "name": "keyId",
          "type": "uint256"
        },
        {
          "internalType": "uint256",
          "name": "circuitId",
          "type": "uint256"
        },
        {
          "internalType": "uint256[]",
          "name": "publicSignals",
          "type": "uint256[]"
        },
        {
          "components": [
            {
              "internalType": "bytes32",
              "name": "submissionId",
              "type": "bytes32"
            },
            {
              "internalType": "bytes32[]",
              "name": "merkleProof",
              "type": "bytes32[]"
            },
            {
              "internalType": "uint16",
              "name": "location",
              "type": "uint16"
            }
          ],
          "internalType": "struct ProofReference",
          "name": "proofReference",
          "type": "tuple"
        }
      ],
      "name": "verifyProofStaticFromMultiProof",
      "outputs": [
        {
          "internalType": "enum VerifyResult",
          "name": "",
          "type": "uint8"
        }
      ],
      "stateMutability": "view",
      "type": "function"
    }
  ],
  "transactionHash": "0xd3062c59bbdf8a1f4848865ff7e7cc96490fb898e2e49812040838b0f80d855c",
  "args": [
    "0xB6D545eEe2d9B3653DaBCf1D0ea23A80FCd51B4C",
    "0x77dA3Cf4418009D171B4963db815Ca46d6F2E79D",
    "0xc4525dA874A6A3877db65e37f21eEc0b41ef9877",
    "0x000C775C5818D02b8b5df524CCfFF2E5D1A1FE88"
  ],
  "numDeployments": 5,
  "solcInputHash": "e08d6b930820ab219ef1afbfaba72b7a",
  "bytecode": "0x60806040523480156200001157600080fd5b50604051620017c2380380620017c28339810160408190526200003491620001d8565b6200003f3362000091565b600180546001600160a01b038087166001600160a01b0319928316179092556002805486841690831617905560038054928516929091169190911790556200008781620000e1565b5050505062000240565b600080546001600160a01b038381166001600160a01b0319831681178455604051919092169283917f8be0079c531659141344cd1fd0a4f28419497f9722a3daafe3b4186f6b6457e09190a35050565b620000eb62000164565b6001600160a01b038116620001565760405162461bcd60e51b815260206004820152602660248201527f4f776e61626c653a206e6577206f776e657220697320746865207a65726f206160448201526564647265737360d01b60648201526084015b60405180910390fd5b620001618162000091565b50565b6000546001600160a01b03163314620001c05760405162461bcd60e51b815260206004820181905260248201527f4f776e61626c653a2063616c6c6572206973206e6f7420746865206f776e657260448201526064016200014d565b565b6001600160a01b03811681146200016157600080fd5b60008060008060808587031215620001ef57600080fd5b8451620001fc81620001c2565b60208601519094506200020f81620001c2565b60408601519093506200022281620001c2565b60608601519092506200023581620001c2565b939692955090935050565b61157280620002506000396000f3fe608060405234801561001057600080fd5b50600436106100ea5760003560e01c80638cf8d6651161008c578063a4cacacf11610066578063a4cacacf146101c6578063b29b86af146101d9578063bfda0d1e146101f3578063f2fde38b1461020657600080fd5b80638cf8d665146101915780638da5cb5b146101a25780639d21902f146101b357600080fd5b806345110d9c116100c857806345110d9c146101525780634b718b8c1461016557806354207d4c14610178578063715018a61461018957600080fd5b8063151c290d146100ef5780631a7d10f1146101185780632a9718241461012d575b600080fd5b6101026100fd36600461122b565b610219565b60405161010f91906112bd565b60405180910390f35b61012b6101263660046112e5565b6103dd565b005b6001546001600160a01b03165b6040516001600160a01b03909116815260200161010f565b61012b6101603660046112e5565b6104aa565b61012b6101733660046112e5565b610572565b6002546001600160a01b031661013a565b61012b61063a565b6003546001600160a01b031661013a565b6000546001600160a01b031661013a565b6101026101c136600461122b565b61064e565b6101026101d4366004611309565b61065e565b6101e1600181565b60405160ff909116815260200161010f565b610102610201366004611309565b610826565b61012b6102143660046112e5565b610836565b60008061022988888887876108c6565b9050600081600981111561023f5761023f6112a7565b1461024b5790506103d3565b600154604051624deda960e81b81526000916001600160a01b031690634deda9009061027f908990899089906004016113fd565b602060405180830381865afa15801561029c573d6000803e3d6000fd5b505050506040513d601f19601f820116820180604052508101906102c09190611417565b9050806102d2576006925050506103d3565b600254604051631ef84f8560e31b81526001600160a01b038b8116600483015260016024830152600092169063f7c27c2890604401602060405180830381865afa158015610324573d6000803e3d6000fd5b505050506040513d601f19601f820116820180604052508101906103489190611439565b6040516332283b2760e11b81529091506001600160a01b03821690636450764e906103799089908990600401611456565b602060405180830381865afa158015610396573d6000803e3d6000fd5b505050506040513d601f19601f820116820180604052508101906103ba9190611417565b156103cb57600893505050506103d3565b600093505050505b9695505050505050565b6103e5610df5565b6001600160a01b03811661044157604051631fff1b3b60e21b815260206004820152601e60248201527f6973737565725265676973747279206973207a65726f2061646472657373000060448201526064015b60405180910390fd5b600354604080516001600160a01b03928316815291831660208301527fe7afd721c46f8367e6fde893fc343404fb8c91b32fe8fc440035458e37ae4444910160405180910390a1600380546001600160a01b0319166001600160a01b0392909216919091179055565b6104b2610df5565b6001600160a01b03811661050957604051631fff1b3b60e21b815260206004820152601b60248201527f7570615665726966696572206973207a65726f206164647265737300000000006044820152606401610438565b600154604080516001600160a01b03928316815291831660208301527fac7bc2cb089fa1fa6e98662a198ea7e40c6f02e09a6f0b7595d2123895b630a7910160405180910390a1600180546001600160a01b0319166001600160a01b0392909216919091179055565b61057a610df5565b6001600160a01b0381166105d157604051631fff1b3b60e21b815260206004820152601c60248201527f747970655265676973747279206973207a65726f2061646472657373000000006044820152606401610438565b600254604080516001600160a01b03928316815291831660208301527f7eebb102f6399a39c5c44574c655f01fbeef3fcfc24732acbb2df1d608dee744910160405180910390a1600280546001600160a01b0319166001600160a01b0392909216919091179055565b610642610df5565b61064c6000610e4f565b565b6000806102298888888787610e9f565b60008061066e89898988886108c6565b90506000816009811115610684576106846112a7565b1461069057905061081b565b600154604051636a872ed960e01b81526000916001600160a01b031690636a872ed9906106c7908a908a908a908a90600401611489565b602060405180830381865afa1580156106e4573d6000803e3d6000fd5b505050506040513d601f19601f820116820180604052508101906107089190611417565b90508061071a5760069250505061081b565b600254604051631ef84f8560e31b81526001600160a01b038c8116600483015260016024830152600092169063f7c27c2890604401602060405180830381865afa15801561076c573d6000803e3d6000fd5b505050506040513d601f19601f820116820180604052508101906107909190611439565b6040516332283b2760e11b81529091506001600160a01b03821690636450764e906107c1908a908a90600401611456565b602060405180830381865afa1580156107de573d6000803e3d6000fd5b505050506040513d601f19601f820116820180604052508101906108029190611417565b15610813576008935050505061081b565b600093505050505b979650505050505050565b60008061066e8989898888610e9f565b61083e610df5565b6001600160a01b0381166108ba5760405162461bcd60e51b815260206004820152602660248201527f4f776e61626c653a206e6577206f776e657220697320746865207a65726f206160448201527f64647265737300000000000000000000000000000000000000000000000000006064820152608401610438565b6108c381610e4f565b50565b6002546040516373190ca560e01b81526001600160a01b0387811660048301526001602483015260009216906373190ca590604401602060405180830381865afa158015610918573d6000803e3d6000fd5b505050506040513d601f19601f8201168201806040525081019061093c9190611417565b61094857506001610dec565b600254604051637b4ed18560e01b81526001600160a01b038881166004830152600160248301526000921690637b4ed18590604401602060405180830381865afa15801561099a573d6000803e3d6000fd5b505050506040513d601f19601f820116820180604052508101906109be9190611439565b604051636277717560e11b81529091506001600160a01b0382169063c4eee2ea906109f2906000908890889060040161152f565b602060405180830381865afa158015610a0f573d6000803e3d6000fd5b505050506040513d601f19601f82011682018060405250810190610a33919061154c565b876001600160a01b031614610a4c576002915050610dec565b604051636277717560e11b81526001600160a01b0382169063c4eee2ea90610a7d906001908890889060040161152f565b602060405180830381865afa158015610a9a573d6000803e3d6000fd5b505050506040513d601f19601f82011682018060405250810190610abe919061154c565b866001600160a01b031614610ad7576003915050610dec565b604051636277717560e11b81526000906001600160a01b0383169063c4eee2ea90610b0b906006908990899060040161152f565b602060405180830381865afa158015610b28573d6000803e3d6000fd5b505050506040513d601f19601f82011682018060405250810190610b4c919061154c565b600354604051631f89dc0b60e11b81526004810189905260248101839052600160448201529192506001600160a01b031690633f13b81690606401602060405180830381865afa158015610ba4573d6000803e3d6000fd5b505050506040513d601f19601f82011682018060405250810190610bc89190611417565b610bd757600492505050610dec565b50604051636277717560e11b81526000906001600160a01b0383169063c4eee2ea90610c0c906005908990899060040161152f565b602060405180830381865afa158015610c29573d6000803e3d6000fd5b505050506040513d601f19601f82011682018060405250810190610c4d919061154c565b905042811015610c6257600792505050610dec565b506002546040516392b0a57f60e01b81526001600160a01b038981166004830152909116906392b0a57f90602401602060405180830381865afa158015610cad573d6000803e3d6000fd5b505050506040513d601f19601f82011682018060405250810190610cd19190611417565b15610de657604051636277717560e11b81526000906001600160a01b0383169063c4eee2ea90610d0a906008908990899060040161152f565b602060405180830381865afa158015610d27573d6000803e3d6000fd5b505050506040513d601f19601f82011682018060405250810190610d4b919061154c565b600354604051632deed10d60e21b81526001600160a01b038b811660048301528a81166024830152604482018a90529293506000929091169063b7bb443490606401602060405180830381865afa158015610daa573d6000803e3d6000fd5b505050506040513d601f19601f82011682018060405250810190610dce919061154c565b9050818114610de35760059350505050610dec565b50505b60009150505b95945050505050565b6000546001600160a01b0316331461064c5760405162461bcd60e51b815260206004820181905260248201527f4f776e61626c653a2063616c6c6572206973206e6f7420746865206f776e65726044820152606401610438565b600080546001600160a01b038381166001600160a01b0319831681178455604051919092169283917f8be0079c531659141344cd1fd0a4f28419497f9722a3daafe3b4186f6b6457e09190a35050565b6002546040516373190ca560e01b81526001600160a01b0387811660048301526001602483015260009216906373190ca590604401602060405180830381865afa158015610ef1573d6000803e3d6000fd5b505050506040513d601f19601f82011682018060405250810190610f159190611417565b610f2157506001610dec565b600254604051637b4ed18560e01b81526001600160a01b038881166004830152600160248301526000921690637b4ed18590604401602060405180830381865afa158015610f73573d6000803e3d6000fd5b505050506040513d601f19601f82011682018060405250810190610f979190611439565b604051636277717560e11b81529091506001600160a01b0382169063c4eee2ea90610fcb906000908890889060040161152f565b602060405180830381865afa158015610fe8573d6000803e3d6000fd5b505050506040513d601f19601f8201168201806040525081019061100c919061154c565b876001600160a01b031614611025576002915050610dec565b604051636277717560e11b81526001600160a01b0382169063c4eee2ea90611056906001908890889060040161152f565b602060405180830381865afa158015611073573d6000803e3d6000fd5b505050506040513d601f19601f82011682018060405250810190611097919061154c565b866001600160a01b0316146110b0576003915050610dec565b604051636277717560e11b81526001600160a01b0382169063c4eee2ea906110e1906006908890889060040161152f565b602060405180830381865afa1580156110fe573d6000803e3d6000fd5b505050506040513d601f19601f82011682018060405250810190611122919061154c565b8514611132576004915050610dec565b604051636277717560e11b81526000906001600160a01b0383169063c4eee2ea90611166906005908990899060040161152f565b602060405180830381865afa158015611183573d6000803e3d6000fd5b505050506040513d601f19601f820116820180604052508101906111a7919061154c565b9050428110156111bc57600792505050610dec565b506000979650505050505050565b6001600160a01b03811681146108c357600080fd5b60008083601f8401126111f157600080fd5b50813567ffffffffffffffff81111561120957600080fd5b6020830191508360208260051b850101111561122457600080fd5b9250929050565b60008060008060008060a0878903121561124457600080fd5b863561124f816111ca565b9550602087013561125f816111ca565b94506040870135935060608701359250608087013567ffffffffffffffff81111561128957600080fd5b61129589828a016111df565b979a9699509497509295939492505050565b634e487b7160e01b600052602160045260246000fd5b60208101600a83106112df57634e487b7160e01b600052602160045260246000fd5b91905290565b6000602082840312156112f757600080fd5b8135611302816111ca565b9392505050565b600080600080600080600060c0888a03121561132457600080fd5b873561132f816111ca565b9650602088013561133f816111ca565b95506040880135945060608801359350608088013567ffffffffffffffff8082111561136a57600080fd5b6113768b838c016111df565b909550935060a08a013591508082111561138f57600080fd5b5088016060818b0312156113a257600080fd5b8091505092959891949750929550565b81835260007f07ffffffffffffffffffffffffffffffffffffffffffffffffffffffffffffff8311156113e457600080fd5b8260051b80836020870137939093016020019392505050565b838152604060208201526000610dec6040830184866113b2565b60006020828403121561142957600080fd5b8151801515811461130257600080fd5b60006020828403121561144b57600080fd5b8151611302816111ca565b60208152600061146a6020830184866113b2565b949350505050565b803561ffff8116811461148457600080fd5b919050565b8481526060602082015260006114a36060830185876113b2565b8281036040840152833581526020840135601e198536030181126114c657600080fd5b840160208101903567ffffffffffffffff8111156114e357600080fd5b8060051b36038213156114f557600080fd5b6060602084015261150a6060840182846113b2565b91505061151960408601611472565b61ffff8116604084015250979650505050505050565b60ff84168152604060208201526000610dec6040830184866113b2565b60006020828403121561155e57600080fd5b505191905056fea164736f6c6343000817000a",
  "devdoc": {
    "events": {
      "IssuerRegistryUpdated(address,address)": {
        "params": {
          "newIssuerRegistry": "The address of the new IssuerRegistry.",
          "oldIssuerRegistry": "The address of the old IssuerRegistry."
        }
      },
      "TypeRegistryUpdated(address,address)": {
        "params": {
          "newTypeRegistry": "The address of the new TypeRegistry.",
          "oldTypeRegistry": "The address of the old TypeRegistry."
        }
      },
      "UpaVerifierUpdated(address,address)": {
        "params": {
          "newUpaVerifier": "The address of the new UpaVerifier.",
          "oldUpaVerifier": "The address of the old UpaVerifier."
        }
      }
    },
    "kind": "dev",
    "methods": {
      "constructor": {
        "details": "BabyzkVerifier constructor",
        "params": {
          "issuerRegistry": "issuer registry contract",
          "typeRegistry": "type registry contract"
        }
      },
      "getIssuerRegistry()": {
        "details": "return the issuer registry"
      },
      "getTypeRegistry()": {
        "details": "return the type registry"
      },
      "getUpaVerifier()": {
        "details": "return the upa verifier"
      },
      "owner()": {
        "details": "Returns the address of the current owner."
      },
      "renounceOwnership()": {
        "details": "Leaves the contract without owner. It will not be possible to call `onlyOwner` functions. Can only be called by the current owner. NOTE: Renouncing ownership will leave the contract without an owner, thereby disabling any functionality that is only available to the owner."
      },
      "transferOwnership(address)": {
        "details": "Transfers ownership of the contract to a new account (`newOwner`). Can only be called by the current owner."
      },
      "updateIssuerRegistry(address)": {
        "details": "update the issuer registry"
      },
      "updateTypeRegistry(address)": {
        "details": "update the type registry"
      },
      "updateUpaVerifier(address)": {
        "details": "update the upa verifier"
      },
      "verifyProofFull(uint160,uint160,uint256,uint256,uint256[])": {
        "details": "Stateful verification of zero-knowledge proofs that checks      if the proof is valid and the issuer public key is active, and      for revocation checks if the the smt root matches.The trust relationship between the credential and issuer is binded by      the public key ID:      credential <--- signed by ---- publikc key <--- authroized by ---- issuer      As long as the issuer set the public key ID to be active, the credential is trusted by the issuer,      However, note that it does not mean that the credential is directly generated by the issuer."
      },
      "verifyProofFullFromMultiProof(uint160,uint160,uint256,uint256,uint256[],(bytes32,bytes32[],uint16))": {
        "details": "Stateful verification of zero-knowledge proofs that checks      if the proof is valid and the issuer public key is active, and      for revocation checks if the the smt root matches.`proofReference` is needed to check proofs that were part of a multi-proof submission.The trust relationship between the credential and issuer is binded by      the public key ID:      credential <--- signed by ---- publikc key <--- authroized by ---- issuer      As long as the issuer set the public key ID to be active, the credential is trusted by the issuer,      However, note that it does not mean that the credential is directly generated by the issuer."
      },
      "verifyProofStatic(uint160,uint160,uint256,uint256,uint256[])": {
        "details": "static verification of zero-knowledge proofs that only checks if the proof is valid.Code duplication is deliberate for clear separation of concerns."
      },
      "verifyProofStaticFromMultiProof(uint160,uint160,uint256,uint256,uint256[],(bytes32,bytes32[],uint16))": {
        "details": "static verification of zero-knowledge proofs that only checks if the proof is valid.`proofReference` is needed to check proofs that were part of a multi-proof submission.Code duplication is deliberate for clear separation of concerns."
      }
    },
    "stateVariables": {
      "_issuerRegistry": {
        "details": "issuer registry"
      },
      "_typeRegistry": {
        "details": "type registry"
      },
      "_upaVerifier": {
        "details": "aggregated proof verifier"
      }
    },
    "title": "AggregatedBabyzkStatefulVerifier",
    "version": 1
  },
  "userdoc": {
    "events": {
      "IssuerRegistryUpdated(address,address)": {
        "notice": "Emitted when the IssuerRegistry is updated."
      },
      "TypeRegistryUpdated(address,address)": {
        "notice": "Emitted when the TypeRegistry is updated."
      },
      "UpaVerifierUpdated(address,address)": {
        "notice": "Emitted when the UpaVerifier is updated."
      }
    },
    "kind": "user",
    "methods": {},
    "notice": "@dev AggregatedBabyzkStatefulVerifier is a contract that does on-chain stateful verification of zero-knowledge proofs.",
    "version": 1
  },
  "storageLayout": {
    "storage": [
      {
        "astId": 7,
        "contract": "contracts/babyzk/AggregatedStatefulProofVerifier.sol:AggregatedBabyzkStatefulVerifier",
        "label": "_owner",
        "offset": 0,
        "slot": "0",
        "type": "t_address"
      },
      {
        "astId": 1831,
        "contract": "contracts/babyzk/AggregatedStatefulProofVerifier.sol:AggregatedBabyzkStatefulVerifier",
        "label": "_upaVerifier",
        "offset": 0,
        "slot": "1",
        "type": "t_contract(IUpaVerifier)5380"
      },
      {
        "astId": 1835,
        "contract": "contracts/babyzk/AggregatedStatefulProofVerifier.sol:AggregatedBabyzkStatefulVerifier",
        "label": "_typeRegistry",
        "offset": 0,
        "slot": "2",
        "type": "t_contract(ITypeRegistry)5343"
      },
      {
        "astId": 1839,
        "contract": "contracts/babyzk/AggregatedStatefulProofVerifier.sol:AggregatedBabyzkStatefulVerifier",
        "label": "_issuerRegistry",
        "offset": 0,
        "slot": "3",
        "type": "t_contract(IIssuerRegistry)4949"
      }
    ],
    "types": {
      "t_address": {
        "encoding": "inplace",
        "label": "address",
        "numberOfBytes": "20"
      },
      "t_contract(IIssuerRegistry)4949": {
        "encoding": "inplace",
        "label": "contract IIssuerRegistry",
        "numberOfBytes": "20"
      },
      "t_contract(ITypeRegistry)5343": {
        "encoding": "inplace",
        "label": "contract ITypeRegistry",
        "numberOfBytes": "20"
      },
      "t_contract(IUpaVerifier)5380": {
        "encoding": "inplace",
        "label": "contract IUpaVerifier",
        "numberOfBytes": "20"
      }
    }
  }
}