{
  "address": "0xF3D3404eb75D076Ab8A0F728C7FAA3c0A5e6549F",
  "abi": [
    {
      "inputs": [
        {
          "internalType": "contract ITypeRegistry",
          "name": "typeRegistry",
          "type": "address"
        },
        {
          "internalType": "contract IIssuerRegistry",
          "name": "issuerRegistry",
          "type": "address"
        },
        {
          "internalType": "address",
          "name": "admin",
          "type": "address"
        }
      ],
      "stateMutability": "nonpayable",
      "type": "constructor"
    },
    {
      "inputs": [
        {
          "internalType": "string",
          "name": "message",
          "type": "string"
        }
      ],
      "name": "InvalidArgument",
      "type": "error"
    },
    {
      "anonymous": false,
      "inputs": [
        {
          "indexed": false,
          "internalType": "contract IIssuerRegistry",
          "name": "oldIssuerRegistry",
          "type": "address"
        },
        {
          "indexed": false,
          "internalType": "contract IIssuerRegistry",
          "name": "newIssuerRegistry",
          "type": "address"
        }
      ],
      "name": "IssuerRegistryUpdated",
      "type": "event"
    },
    {
      "anonymous": false,
      "inputs": [
        {
          "indexed": true,
          "internalType": "address",
          "name": "previousOwner",
          "type": "address"
        },
        {
          "indexed": true,
          "internalType": "address",
          "name": "newOwner",
          "type": "address"
        }
      ],
      "name": "OwnershipTransferred",
      "type": "event"
    },
    {
      "anonymous": false,
      "inputs": [
        {
          "indexed": false,
          "internalType": "contract ITypeRegistry",
          "name": "oldTypeRegistry",
          "type": "address"
        },
        {
          "indexed": false,
          "internalType": "contract ITypeRegistry",
          "name": "newTypeRegistry",
          "type": "address"
        }
      ],
      "name": "TypeRegistryUpdated",
      "type": "event"
    },
    {
      "inputs": [],
      "name": "STACK_ID",
      "outputs": [
        {
          "internalType": "uint8",
          "name": "",
          "type": "uint8"
        }
      ],
      "stateMutability": "view",
      "type": "function"
    },
    {
      "inputs": [],
      "name": "getIssuerRegistry",
      "outputs": [
        {
          "internalType": "contract IIssuerRegistry",
          "name": "",
          "type": "address"
        }
      ],
      "stateMutability": "view",
      "type": "function"
    },
    {
      "inputs": [],
      "name": "getTypeRegistry",
      "outputs": [
        {
          "internalType": "contract ITypeRegistry",
          "name": "",
          "type": "address"
        }
      ],
      "stateMutability": "view",
      "type": "function"
    },
    {
      "inputs": [],
      "name": "owner",
      "outputs": [
        {
          "internalType": "address",
          "name": "",
          "type": "address"
        }
      ],
      "stateMutability": "view",
      "type": "function"
    },
    {
      "inputs": [],
      "name": "renounceOwnership",
      "outputs": [],
      "stateMutability": "nonpayable",
      "type": "function"
    },
    {
      "inputs": [
        {
          "internalType": "address",
          "name": "newOwner",
          "type": "address"
        }
      ],
      "name": "transferOwnership",
      "outputs": [],
      "stateMutability": "nonpayable",
      "type": "function"
    },
    {
      "inputs": [
        {
          "internalType": "contract IIssuerRegistry",
          "name": "issuerRegistry",
          "type": "address"
        }
      ],
      "name": "updateIssuerRegistry",
      "outputs": [],
      "stateMutability": "nonpayable",
      "type": "function"
    },
    {
      "inputs": [
        {
          "internalType": "contract ITypeRegistry",
          "name": "typeRegistry",
          "type": "address"
        }
      ],
      "name": "updateTypeRegistry",
      "outputs": [],
      "stateMutability": "nonpayable",
      "type": "function"
    },
    {
      "inputs": [
        {
          "internalType": "uint160",
          "name": "typeId",
          "type": "uint160"
        },
        {
          "internalType": "uint160",
          "name": "contextId",
          "type": "uint160"
        },
        {
          "internalType": "uint256",
          "name": "issuerId",
          "type": "uint256"
        },
        {
          "internalType": "uint256[]",
          "name": "proofs",
          "type": "uint256[]"
        },
        {
          "internalType": "uint256[]",
          "name": "publicSignals",
          "type": "uint256[]"
        }
      ],
      "name": "verifyProofFull",
      "outputs": [
        {
          "internalType": "enum VerifyResult",
          "name": "",
          "type": "uint8"
        }
      ],
      "stateMutability": "view",
      "type": "function"
    },
    {
      "inputs": [
        {
          "internalType": "uint160",
          "name": "typeId",
          "type": "uint160"
        },
        {
          "internalType": "uint160",
          "name": "contextId",
          "type": "uint160"
        },
        {
          "internalType": "uint256",
          "name": "keyId",
          "type": "uint256"
        },
        {
          "internalType": "uint256[]",
          "name": "proofs",
          "type": "uint256[]"
        },
        {
          "internalType": "uint256[]",
          "name": "publicSignals",
          "type": "uint256[]"
        }
      ],
      "name": "verifyProofStatic",
      "outputs": [
        {
          "internalType": "enum VerifyResult",
          "name": "",
          "type": "uint8"
        }
      ],
      "stateMutability": "view",
      "type": "function"
    }
  ],
  "transactionHash": "0x938954659607ae04125e7cea358ad474db117065bc4419e66ea245280cde8a70",
  "args": [
    "0x77dA3Cf4418009D171B4963db815Ca46d6F2E79D",
    "0xc4525dA874A6A3877db65e37f21eEc0b41ef9877",
    "0xa5E5EA38cF3bD36475596858AC7546d17752E4A7"
  ],
  "numDeployments": 1,
  "solcInputHash": "bc078363460d61dedeec968994d22b1e",
  "bytecode": "0x60806040523480156200001157600080fd5b50604051620012c2380380620012c28339810160408190526200003491620001ca565b6200003f3362000083565b600180546001600160a01b038086166001600160a01b03199283161790925560028054928516929091169190911790556200007a81620000d3565b5050506200021e565b600080546001600160a01b038381166001600160a01b0319831681178455604051919092169283917f8be0079c531659141344cd1fd0a4f28419497f9722a3daafe3b4186f6b6457e09190a35050565b620000dd62000156565b6001600160a01b038116620001485760405162461bcd60e51b815260206004820152602660248201527f4f776e61626c653a206e6577206f776e657220697320746865207a65726f206160448201526564647265737360d01b60648201526084015b60405180910390fd5b620001538162000083565b50565b6000546001600160a01b03163314620001b25760405162461bcd60e51b815260206004820181905260248201527f4f776e61626c653a2063616c6c6572206973206e6f7420746865206f776e657260448201526064016200013f565b565b6001600160a01b03811681146200015357600080fd5b600080600060608486031215620001e057600080fd5b8351620001ed81620001b4565b60208501519093506200020081620001b4565b60408501519092506200021381620001b4565b809150509250925092565b611094806200022e6000396000f3fe608060405234801561001057600080fd5b50600436106100be5760003560e01c80638cf8d66511610076578063aff16ba11161005b578063aff16ba114610163578063b29b86af14610176578063f2fde38b1461019057600080fd5b80638cf8d665146101415780638da5cb5b1461015257600080fd5b80634b718b8c116100a75780634b718b8c1461010157806354207d4c14610114578063715018a61461013957600080fd5b8063070ecf4d146100c35780631a7d10f1146100ec575b600080fd5b6100d66100d1366004610eac565b6101a3565b6040516100e39190610f4b565b60405180910390f35b6100ff6100fa366004610f73565b6107dc565b005b6100ff61010f366004610f73565b6108b6565b6001546001600160a01b03165b6040516001600160a01b0390911681526020016100e3565b6100ff61098b565b6002546001600160a01b0316610121565b6000546001600160a01b0316610121565b6100d6610171366004610eac565b61099f565b61017e600181565b60405160ff90911681526020016100e3565b6100ff61019e366004610f73565b610d04565b600180546040516373190ca560e01b81526001600160a01b038a811660048301526024820193909352600092909116906373190ca590604401602060405180830381865afa1580156101f9573d6000803e3d6000fd5b505050506040513d601f19601f8201168201806040525081019061021d9190610f97565b610229575060016107d1565b60018054604051637b4ed18560e01b81526001600160a01b038b81166004830152602482019390935260009290911690637b4ed18590604401602060405180830381865afa15801561027f573d6000803e3d6000fd5b505050506040513d601f19601f820116820180604052508101906102a39190610fb9565b604051636277717560e11b81529091506001600160a01b0382169063c4eee2ea906102d79060009088908890600401611021565b602060405180830381865afa1580156102f4573d6000803e3d6000fd5b505050506040513d601f19601f820116820180604052508101906103189190611047565b896001600160a01b0316146103315760029150506107d1565b604051636277717560e11b81526001600160a01b0382169063c4eee2ea906103629060019088908890600401611021565b602060405180830381865afa15801561037f573d6000803e3d6000fd5b505050506040513d601f19601f820116820180604052508101906103a39190611047565b886001600160a01b0316146103bc5760039150506107d1565b604051636277717560e11b81526000906001600160a01b0383169063c4eee2ea906103f09060069089908990600401611021565b602060405180830381865afa15801561040d573d6000803e3d6000fd5b505050506040513d601f19601f820116820180604052508101906104319190611047565b600254604051631f89dc0b60e11b8152600481018b905260248101839052600160448201529192506001600160a01b031690633f13b81690606401602060405180830381865afa158015610489573d6000803e3d6000fd5b505050506040513d601f19601f820116820180604052508101906104ad9190610f97565b6104bc576004925050506107d1565b50604051636277717560e11b81526000906001600160a01b0383169063c4eee2ea906104f19060059089908990600401611021565b602060405180830381865afa15801561050e573d6000803e3d6000fd5b505050506040513d601f19601f820116820180604052508101906105329190611047565b905042811015610547576007925050506107d1565b506001546040516392b0a57f60e01b81526001600160a01b038b81166004830152909116906392b0a57f90602401602060405180830381865afa158015610592573d6000803e3d6000fd5b505050506040513d601f19601f820116820180604052508101906105b69190610f97565b156106cb57604051636277717560e11b81526000906001600160a01b0383169063c4eee2ea906105ef9060089089908990600401611021565b602060405180830381865afa15801561060c573d6000803e3d6000fd5b505050506040513d601f19601f820116820180604052508101906106309190611047565b600254604051632deed10d60e21b81526001600160a01b038d811660048301528c81166024830152604482018c90529293506000929091169063b7bb443490606401602060405180830381865afa15801561068f573d6000803e3d6000fd5b505050506040513d601f19601f820116820180604052508101906106b39190611047565b90508181146106c857600593505050506107d1565b50505b5060018054604051631ef84f8560e31b81526001600160a01b038b8116600483015260248201939093526000929091169063f7c27c28906044015b602060405180830381865afa158015610723573d6000803e3d6000fd5b505050506040513d601f19601f820116820180604052508101906107479190610fb9565b604051631c87a92b60e21b81529091506001600160a01b0382169063721ea4ac9061077c908990899089908990600401611060565b602060405180830381865afa158015610799573d6000803e3d6000fd5b505050506040513d601f19601f820116820180604052508101906107bd9190610f97565b6107cb5760069150506107d1565b60009150505b979650505050505050565b6107e4610d94565b6001600160a01b03811661084057604051631fff1b3b60e21b815260206004820152601e60248201527f6973737565725265676973747279206973207a65726f2061646472657373000060448201526064015b60405180910390fd5b600254604080516001600160a01b03928316815291831660208301527fe7afd721c46f8367e6fde893fc343404fb8c91b32fe8fc440035458e37ae4444910160405180910390a16002805473ffffffffffffffffffffffffffffffffffffffff19166001600160a01b0392909216919091179055565b6108be610d94565b6001600160a01b03811661091557604051631fff1b3b60e21b815260206004820152601c60248201527f747970655265676973747279206973207a65726f2061646472657373000000006044820152606401610837565b600154604080516001600160a01b03928316815291831660208301527f7eebb102f6399a39c5c44574c655f01fbeef3fcfc24732acbb2df1d608dee744910160405180910390a16001805473ffffffffffffffffffffffffffffffffffffffff19166001600160a01b0392909216919091179055565b610993610d94565b61099d6000610dee565b565b600180546040516373190ca560e01b81526001600160a01b038a811660048301526024820193909352600092909116906373190ca590604401602060405180830381865afa1580156109f5573d6000803e3d6000fd5b505050506040513d601f19601f82011682018060405250810190610a199190610f97565b610a25575060016107d1565b60018054604051637b4ed18560e01b81526001600160a01b038b81166004830152602482019390935260009290911690637b4ed18590604401602060405180830381865afa158015610a7b573d6000803e3d6000fd5b505050506040513d601f19601f82011682018060405250810190610a9f9190610fb9565b604051636277717560e11b81529091506001600160a01b0382169063c4eee2ea90610ad39060009088908890600401611021565b602060405180830381865afa158015610af0573d6000803e3d6000fd5b505050506040513d601f19601f82011682018060405250810190610b149190611047565b896001600160a01b031614610b2d5760029150506107d1565b604051636277717560e11b81526001600160a01b0382169063c4eee2ea90610b5e9060019088908890600401611021565b602060405180830381865afa158015610b7b573d6000803e3d6000fd5b505050506040513d601f19601f82011682018060405250810190610b9f9190611047565b886001600160a01b031614610bb85760039150506107d1565b604051636277717560e11b81526001600160a01b0382169063c4eee2ea90610be99060069088908890600401611021565b602060405180830381865afa158015610c06573d6000803e3d6000fd5b505050506040513d601f19601f82011682018060405250810190610c2a9190611047565b8714610c3a5760049150506107d1565b604051636277717560e11b81526000906001600160a01b0383169063c4eee2ea90610c6e9060059089908990600401611021565b602060405180830381865afa158015610c8b573d6000803e3d6000fd5b505050506040513d601f19601f82011682018060405250810190610caf9190611047565b905042811015610cc4576007925050506107d1565b505060018054604051631ef84f8560e31b81526001600160a01b038b8116600483015260248201939093526000929091169063f7c27c2890604401610706565b610d0c610d94565b6001600160a01b038116610d885760405162461bcd60e51b815260206004820152602660248201527f4f776e61626c653a206e6577206f776e657220697320746865207a65726f206160448201527f64647265737300000000000000000000000000000000000000000000000000006064820152608401610837565b610d9181610dee565b50565b6000546001600160a01b0316331461099d5760405162461bcd60e51b815260206004820181905260248201527f4f776e61626c653a2063616c6c6572206973206e6f7420746865206f776e65726044820152606401610837565b600080546001600160a01b0383811673ffffffffffffffffffffffffffffffffffffffff19831681178455604051919092169283917f8be0079c531659141344cd1fd0a4f28419497f9722a3daafe3b4186f6b6457e09190a35050565b6001600160a01b0381168114610d9157600080fd5b60008083601f840112610e7257600080fd5b50813567ffffffffffffffff811115610e8a57600080fd5b6020830191508360208260051b8501011115610ea557600080fd5b9250929050565b600080600080600080600060a0888a031215610ec757600080fd5b8735610ed281610e4b565b96506020880135610ee281610e4b565b955060408801359450606088013567ffffffffffffffff80821115610f0657600080fd5b610f128b838c01610e60565b909650945060808a0135915080821115610f2b57600080fd5b50610f388a828b01610e60565b989b979a50959850939692959293505050565b6020810160098310610f6d57634e487b7160e01b600052602160045260246000fd5b91905290565b600060208284031215610f8557600080fd5b8135610f9081610e4b565b9392505050565b600060208284031215610fa957600080fd5b81518015158114610f9057600080fd5b600060208284031215610fcb57600080fd5b8151610f9081610e4b565b81835260007f07ffffffffffffffffffffffffffffffffffffffffffffffffffffffffffffff83111561100857600080fd5b8260051b80836020870137939093016020019392505050565b60ff8416815260406020820152600061103e604083018486610fd6565b95945050505050565b60006020828403121561105957600080fd5b5051919050565b604081526000611074604083018688610fd6565b82810360208401526107d1818587610fd656fea164736f6c6343000817000a",
  "devdoc": {
    "events": {
      "IssuerRegistryUpdated(address,address)": {
        "params": {
          "newIssuerRegistry": "The address of the new IssuerRegistry.",
          "oldIssuerRegistry": "The address of the old IssuerRegistry."
        }
      },
      "TypeRegistryUpdated(address,address)": {
        "params": {
          "newTypeRegistry": "The address of the new TypeRegistry.",
          "oldTypeRegistry": "The address of the old TypeRegistry."
        }
      }
    },
    "kind": "dev",
    "methods": {
      "constructor": {
        "details": "BabyzkVerifier constructor",
        "params": {
          "issuerRegistry": "issuer registry contract",
          "typeRegistry": "type registry contract"
        }
      },
      "getIssuerRegistry()": {
        "details": "return the issuer registry"
      },
      "getTypeRegistry()": {
        "details": "return the type registry"
      },
      "owner()": {
        "details": "Returns the address of the current owner."
      },
      "renounceOwnership()": {
        "details": "Leaves the contract without owner. It will not be possible to call `onlyOwner` functions. Can only be called by the current owner. NOTE: Renouncing ownership will leave the contract without an owner, thereby disabling any functionality that is only available to the owner."
      },
      "transferOwnership(address)": {
        "details": "Transfers ownership of the contract to a new account (`newOwner`). Can only be called by the current owner."
      },
      "updateIssuerRegistry(address)": {
        "details": "update the issuer registry"
      },
      "updateTypeRegistry(address)": {
        "details": "update the type registry"
      },
      "verifyProofFull(uint160,uint160,uint256,uint256[],uint256[])": {
        "details": "Stateful verification of zero-knowledge proofs that checks      if the proof is valid and the issuer public key is active, and      for revocation checks if the the smt root matches.The trust relationship between the credential and issuer is binded by      the public key ID:      credential <--- signed by ---- publikc key <--- authroized by ---- issuer      As long as the issuer set the public key ID to be active, the credential is trusted by the issuer,      However, note that it does not mean that the credential is directly generated by the issuer."
      },
      "verifyProofStatic(uint160,uint160,uint256,uint256[],uint256[])": {
        "details": "static verification of zero-knowledge proofs that only checks if the proof is valid.Code duplication is deliberate for clear separation of concerns."
      }
    },
    "stateVariables": {
      "_issuerRegistry": {
        "details": "issuer registry"
      },
      "_typeRegistry": {
        "details": "type registry"
      }
    },
    "title": "BabyzkVerifier",
    "version": 1
  },
  "userdoc": {
    "events": {
      "IssuerRegistryUpdated(address,address)": {
        "notice": "Emitted when the IssuerRegistry is updated."
      },
      "TypeRegistryUpdated(address,address)": {
        "notice": "Emitted when the TypeRegistry is updated."
      }
    },
    "kind": "user",
    "methods": {},
    "notice": "@dev BabyzkVerifier is a contract that does on-chain stateful verification of zero-knowledge proofs.",
    "version": 1
  },
  "storageLayout": {
    "storage": [
      {
        "astId": 7,
        "contract": "contracts/babyzk/StatefulProofVerifier.sol:BabyzkStatefulVerifier",
        "label": "_owner",
        "offset": 0,
        "slot": "0",
        "type": "t_address"
      },
      {
        "astId": 1852,
        "contract": "contracts/babyzk/StatefulProofVerifier.sol:BabyzkStatefulVerifier",
        "label": "_typeRegistry",
        "offset": 0,
        "slot": "1",
        "type": "t_contract(ITypeRegistry)4417"
      },
      {
        "astId": 1856,
        "contract": "contracts/babyzk/StatefulProofVerifier.sol:BabyzkStatefulVerifier",
        "label": "_issuerRegistry",
        "offset": 0,
        "slot": "2",
        "type": "t_contract(IIssuerRegistry)4023"
      }
    ],
    "types": {
      "t_address": {
        "encoding": "inplace",
        "label": "address",
        "numberOfBytes": "20"
      },
      "t_contract(IIssuerRegistry)4023": {
        "encoding": "inplace",
        "label": "contract IIssuerRegistry",
        "numberOfBytes": "20"
      },
      "t_contract(ITypeRegistry)4417": {
        "encoding": "inplace",
        "label": "contract ITypeRegistry",
        "numberOfBytes": "20"
      }
    }
  }
}