{
  "address": "0xAb995d6b7eFc02A90dC1aF378bc27264da42c12F",
  "abi": [
    {
      "inputs": [],
      "name": "AliasedPublicSignal",
      "type": "error"
    },
    {
      "inputs": [],
      "name": "getVerificationKeys",
      "outputs": [
        {
          "internalType": "uint256[]",
          "name": "",
          "type": "uint256[]"
        }
      ],
      "stateMutability": "pure",
      "type": "function"
    },
    {
      "inputs": [
        {
          "internalType": "uint256[]",
          "name": "_pubSignals",
          "type": "uint256[]"
        }
      ],
      "name": "isAliased",
      "outputs": [
        {
          "internalType": "bool",
          "name": "",
          "type": "bool"
        }
      ],
      "stateMutability": "pure",
      "type": "function"
    },
    {
      "inputs": [
        {
          "internalType": "uint256[]",
          "name": "_proofs",
          "type": "uint256[]"
        },
        {
          "internalType": "uint256[]",
          "name": "_pubSignals",
          "type": "uint256[]"
        }
      ],
      "name": "verifyProof",
      "outputs": [
        {
          "internalType": "bool",
          "name": "",
          "type": "bool"
        }
      ],
      "stateMutability": "view",
      "type": "function"
    }
  ],
  "transactionHash": "0x5f0f504ce46cee6e33546da3218ba69babd1761c3729555b6529249d45b27278",
  "args": [],
  "numDeployments": 1,
  "solcInputHash": "e20dc7d17a3e1280027427f0d06f6dd3",
  "bytecode": "0x608060405234801561001057600080fd5b5061224f806100206000396000f3fe608060405234801561001057600080fd5b50600436106100415760003560e01c80636450764e14610046578063721ea4ac1461006e578063ae440fb014610081575b600080fd5b6100596100543660046120c2565b610096565b60405190151581526020015b60405180910390f35b61005961007c366004612104565b6104c5565b61008961108f565b6040516100659190612170565b6000600160a01b838360008181106100b0576100b06121b4565b90506020020135106100c4575060016104bf565b600160a01b838360018181106100dc576100dc6121b4565b90506020020135106100f0575060016104bf565b7f30644e72e131a029b85045b68181585d2833e84879b9709143e1f593f000000183836002818110610124576101246121b4565b9050602002013510610138575060016104bf565b600160a01b83836003818110610150576101506121b4565b9050602002013510610164575060016104bf565b600160f81b8383600481811061017c5761017c6121b4565b9050602002013510610190575060016104bf565b600160401b838360058181106101a8576101a86121b4565b90506020020135106101bc575060016104bf565b7f30644e72e131a029b85045b68181585d2833e84879b9709143e1f593f0000001838360068181106101f0576101f06121b4565b9050602002013510610204575060016104bf565b600160f91b8383600781811061021c5761021c6121b4565b9050602002013510610230575060016104bf565b600160401b83836008818110610248576102486121b4565b905060200201351061025c575060016104bf565b600160401b83836009818110610274576102746121b4565b9050602002013510610288575060016104bf565b6102008383600a81811061029e5761029e6121b4565b90506020020135106102b2575060016104bf565b620200008383600b8181106102c9576102c96121b4565b90506020020135106102dd575060016104bf565b6102008383600c8181106102f3576102f36121b4565b9050602002013510610307575060016104bf565b600160401b8383600d81811061031f5761031f6121b4565b9050602002013510610333575060016104bf565b600160401b8383600e81811061034b5761034b6121b4565b905060200201351061035f575060016104bf565b600160401b8383600f818110610377576103776121b4565b905060200201351061038b575060016104bf565b600160401b838360108181106103a3576103a36121b4565b90506020020135106103b7575060016104bf565b600160401b838360118181106103cf576103cf6121b4565b90506020020135106103e3575060016104bf565b600160401b838360128181106103fb576103fb6121b4565b905060200201351061040f575060016104bf565b600160401b83836013818110610427576104276121b4565b905060200201351061043b575060016104bf565b600160401b83836014818110610453576104536121b4565b9050602002013510610467575060016104bf565b6101008383601581811061047d5761047d6121b4565b9050602002013510610491575060016104bf565b610100838360168181106104a7576104a76121b4565b90506020020135106104bb575060016104bf565b5060005b92915050565b60006008841461051c5760405162461bcd60e51b815260206004820152600d60248201527f496e76616c69642070726f6f660000000000000000000000000000000000000060448201526064015b60405180910390fd5b6017821461056c5760405162461bcd60e51b815260206004820152601560248201527f496e76616c6964207075626c6963207369676e616c00000000000000000000006044820152606401610513565b6105768383610096565b1561058357506000611087565b61105d565b600060405183815284602082015285604082015260408160608360076107d05a03fa9150816105bb576000805260206000f35b825160408201526020830151606082015260408360808360066107d05a03fa915050806105ec576000805260206000f35b5050505050565b7f176356ba102a78cba3a4d7159c10c7c80af183e3010eb53c3715141f962bd52085527f26bd943c9e286f10fa5cf7605ca5fb16327cbb05d84a848a7089e20acbe0245960208601526000608086018661069087357f190095aa07b8967150128d6344717cc5d7cef82552fd857d190b92ee9715ab6a7f0376009aa2ed59bd5f907425075d6ef34e573f91d9bea96f04f69a7cd53103b784610588565b6106e060208801357f0e41c4c0a620a045d57daab39ec98d1db8d4c17735da1c10c8c76a80e96be58a7f27447e59eb0369b3baa46ba86b774fb8a25b9aaa5adfbf36ef4c9d8ae31eeb4184610588565b61073060408801357f0a7fb861767046d1db0a14964d883957594c279c3aff6f3becc014b1f10eff4a7f0ac0b329999cd07a10dc2ca8f463685403d442a731b67f68308b4ced20c49e9c84610588565b61078060608801357f0c9bfc86afafd2809c694145c95029cd0301d27209a8e39e5feaac49e7b106c07f2d11e30c997109662721f5742666d273b72754e54c13e5a123b190ed865c8c6d84610588565b6107d060808801357f091975bacf0ada60d1d74234f5b0dd101907c7e551ae0781a089dcda5c1196b07f0fc162324a1388d865beecfb6fab3d302473a750d14eb5d15e21c9b7aabdec8284610588565b61082060a08801357f0472dc4cb575930eec0a7ee33d45a0fbddb2f2ec5ea7675518401d0bad2e18937f245a7f2ddbcde3908e753d23f06a6bae1c1d67eff272ba4e8d555f4b3da239bb84610588565b61087060c08801357f1206e46aae7d09875e8af32be487d040fe39f2006e5058c80c3fe2f8ae91e7307f09276c70842396c7eec8f7b3a3e4e15590c74e19d32ab2022800305affdd2c3f84610588565b6108c060e08801357f150c153f55c5691daa41249331b7d0210a71bc5210b96c83caf003a2a060aef37f2678cee9883dcf8c1432ce5971a316d1fe69d547a8489eea90951f1a90070b5684610588565b6109116101008801357f1f3126c203df110b9aa8228e7aa989398778bf2bcc837f72f48638a05a2352177f13c03c22214ff575363d9d0a4c7180b6dbb1099634497c2758d66ada01f5f9f584610588565b6109616101208801357f07808a915a649bc47ac1e35e599c9bbc9567f7ff244c35e77d955578aceded397ef104efcb3a5c7d4d0937128f26d42b7cb50ffe189043d63022885d465649cd84610588565b6109b26101408801357f154b857b2c16dd9e359a6e92d2fd5b8c0218a7aa2a1dc3f5feafb2e556a588057f115b5213e83a894b2f9b25ca1e8610aefedbacf6cbebc73e97347cd8068c724e84610588565b610a036101608801357f24eac9b8256688cd477a061cf3306a2cb304fb272c43e1b29702f1eb827371907f15936bcfb72d8e29f0000fd0a7c746b59723dba661ddf614fa6d3e719ef77af184610588565b610a546101808801357f1aac2b83f3c38043ba28a0c7a645bdabc659ee1d9df8a26a213812a8606300337f17c715f4a81e124985344b5dfcfde6eff493a9b00ca6940032f5dc73194ad5b684610588565b610aa56101a08801357f0b39516f081e3e47459eddb1b30c9a2b89a6f90df8f61b3617109494d03d0b2b7f035cb771f5494ad9935f9bfb285ef9c8c63b696a08d441553f5a1a344e0634af84610588565b610af66101c08801357f2e6df76c822a6ae67fcabd5724c411d9eeec767f28f5e5077d0357af878e44127f1dff059f2d5debab61d2c8a3924e84193d9a1c66b643700fb88eb252e72ee13384610588565b610b476101e08801357f26ee6265cc07b2ea03a110ce8ee5ef7084e7b52dc460cc8f584a510fa50a66d97f272979e6be70d9cd038dce81e676deb66952bfb8e80451d4ee56c64d275fa6fa84610588565b610b986102008801357f1e2fdbff6d2e1e74f62275e45c646d88789d0a56f6a1baa5ed64cf93b1786ce07f20f5a0ec328bd1552488cf2b915c9d3650a3b7f732feaf0728dc10e1299fd10584610588565b610be96102208801357f1eeba159d9722c1f14ad7b1a8e32c72583c99dbfba304b42f5e28eef80845b237f2aa0fdb3e88027b19e88f09c3fae57b110860b4dd14ddbe994ffaeb1e4a95d3a84610588565b610c3a6102408801357f0c93ed937f7b367565999133b5031116bd465f5609151fe15028e47d40d195737f0d8cb308d4d405d440d889dc7a674d86ab88577ee226aed3c8509bcdcd29027a84610588565b610c8a6102608801357ede9ec4550a8a53333ec5d472e6719a94129c53136d39af2258741f81f405967f185ab0007133aaa674abc89372e7573310a0f4a4ddf2c7853f344f2d154c399b84610588565b610cdb6102808801357f100a26fd172a1c45ef6af35d24a85b48d2d0c440b57b572edfe0894fbe30d2a17f07ac1dac81da1f60fb102473ef1c5e4eeb80eddc51a67337fb2aa62e8bff0cc384610588565b610d2c6102a08801357f04e6ddf8743a43acdcd8c16b32baa814177f9db84e1233b0bab139584137a5a57f153f4c12a114750eb54295eddfa03ab849f68d9ce2b9383e401bb1dea9de6b8a84610588565b610d7d6102c08801357f169655b9dac7d5cb72b80477377b9db5b0905c428ea17cc43e7bc3dbf12d254e7f21b03f45e202638c7774e2d27d3ff3cb2c8b4c59b78d54cd390a6530db7e04d384610588565b50823581527f30644e72e131a029b85045b68181585d97816a916871ca8d3c208c16d87cfd4760208401357f30644e72e131a029b85045b68181585d97816a916871ca8d3c208c16d87cfd4703066020820152833560408201526020840135606082015260408401356080820152606084013560a08201527f2d4d9aa7e302d9df41749d5507949d05dbea33fbb16c643b22f599a2be6df2e260c08201527f14bedd503c37ceb061d8ec60209fe345ce89830a19230301f076caff004d192660e08201527f0967032fcbf776d1afc985f88877f182d38480a653f2decaa9794cbc3bf3060c6101008201527f0e187847ad4c798374d0d6732bf501847dd68bc0e071241e0213bc7fc13db7ab6101208201527f304cfbd1e08a704a99f5e847d93f8c3caafddec46b7a0d379da69a4d112346a76101408201527f1739c1b1a457a8c7313123d24d2f9192f896b7c63eea05a9d57f06547ad0cec8610160820152600087015161018082015260206000018701516101a08201527f198e9393920d483a7260bfb731fb5d25f1aa493335a9e71297e485b7aef312c26101c08201527f1800deef121f1e76426a00665e5c4479674322d4f75edadd46debd5cd992f6ed6101e08201527f090689d0585ff075ec9e99ad690c3395bc4b313370b38ef355acdadcd122975b6102008201527f12c85ea5db8c6deb4aab71808dcb408fe3d1e7690c43d37b4ce6cc0166fa7daa610220820152843561024082015260208501356102608201527f14847b0376d39070b75d5f92813c4a7a9d409f65aa84e0cfb287ecf8f4aaefeb6102808201527f0c1b72edcb8e25b538c697d7a4e0fcda1e0c51d0e7cd4a1d6ed5547deff5aa656102a08201527f02522dc7c9daf8e0f979b2eb24f3dab55c09e1fcddfbf681204ea49c87edcf326102c08201527f05b01b1f256ce9fe7e64dd065169a5c9ff68417c4b35c3e37b3c38a891deced66102e08201526020816103008360086107d05a03fa9051169695505050505050565b604051610380810160405261107b818560c0890160408a018a6105f3565b90508060005260206000f35b949350505050565b6060600061109f601760026121e0565b6110aa906010612208565b63ffffffff1667ffffffffffffffff8111156110c8576110c861222c565b6040519080825280602002602001820160405280156110f1578160200160208202803683370190505b5090507f2d4d9aa7e302d9df41749d5507949d05dbea33fbb16c643b22f599a2be6df2e281600081518110611128576111286121b4565b6020026020010181815250507f14bedd503c37ceb061d8ec60209fe345ce89830a19230301f076caff004d192681600181518110611168576111686121b4565b6020026020010181815250507f0967032fcbf776d1afc985f88877f182d38480a653f2decaa9794cbc3bf3060c816002815181106111a8576111a86121b4565b6020026020010181815250507f0e187847ad4c798374d0d6732bf501847dd68bc0e071241e0213bc7fc13db7ab816003815181106111e8576111e86121b4565b6020026020010181815250507f304cfbd1e08a704a99f5e847d93f8c3caafddec46b7a0d379da69a4d112346a781600481518110611228576112286121b4565b6020026020010181815250507f1739c1b1a457a8c7313123d24d2f9192f896b7c63eea05a9d57f06547ad0cec881600581518110611268576112686121b4565b6020026020010181815250507f198e9393920d483a7260bfb731fb5d25f1aa493335a9e71297e485b7aef312c2816006815181106112a8576112a86121b4565b6020026020010181815250507f1800deef121f1e76426a00665e5c4479674322d4f75edadd46debd5cd992f6ed816007815181106112e8576112e86121b4565b6020026020010181815250507f090689d0585ff075ec9e99ad690c3395bc4b313370b38ef355acdadcd122975b81600881518110611328576113286121b4565b6020026020010181815250507f12c85ea5db8c6deb4aab71808dcb408fe3d1e7690c43d37b4ce6cc0166fa7daa81600981518110611368576113686121b4565b6020026020010181815250507f14847b0376d39070b75d5f92813c4a7a9d409f65aa84e0cfb287ecf8f4aaefeb81600a815181106113a8576113a86121b4565b6020026020010181815250507f0c1b72edcb8e25b538c697d7a4e0fcda1e0c51d0e7cd4a1d6ed5547deff5aa6581600b815181106113e8576113e86121b4565b6020026020010181815250507f02522dc7c9daf8e0f979b2eb24f3dab55c09e1fcddfbf681204ea49c87edcf3281600c81518110611428576114286121b4565b6020026020010181815250507f05b01b1f256ce9fe7e64dd065169a5c9ff68417c4b35c3e37b3c38a891deced681600d81518110611468576114686121b4565b6020026020010181815250507f176356ba102a78cba3a4d7159c10c7c80af183e3010eb53c3715141f962bd52081600e815181106114a8576114a86121b4565b6020026020010181815250507f26bd943c9e286f10fa5cf7605ca5fb16327cbb05d84a848a7089e20acbe0245981600f815181106114e8576114e86121b4565b6020026020010181815250507f0376009aa2ed59bd5f907425075d6ef34e573f91d9bea96f04f69a7cd53103b781601081518110611528576115286121b4565b6020026020010181815250507f190095aa07b8967150128d6344717cc5d7cef82552fd857d190b92ee9715ab6a81601181518110611568576115686121b4565b6020026020010181815250507f27447e59eb0369b3baa46ba86b774fb8a25b9aaa5adfbf36ef4c9d8ae31eeb41816012815181106115a8576115a86121b4565b6020026020010181815250507f0e41c4c0a620a045d57daab39ec98d1db8d4c17735da1c10c8c76a80e96be58a816013815181106115e8576115e86121b4565b6020026020010181815250507f0ac0b329999cd07a10dc2ca8f463685403d442a731b67f68308b4ced20c49e9c81601481518110611628576116286121b4565b6020026020010181815250507f0a7fb861767046d1db0a14964d883957594c279c3aff6f3becc014b1f10eff4a81601581518110611668576116686121b4565b6020026020010181815250507f2d11e30c997109662721f5742666d273b72754e54c13e5a123b190ed865c8c6d816016815181106116a8576116a86121b4565b6020026020010181815250507f0c9bfc86afafd2809c694145c95029cd0301d27209a8e39e5feaac49e7b106c0816017815181106116e8576116e86121b4565b6020026020010181815250507f0fc162324a1388d865beecfb6fab3d302473a750d14eb5d15e21c9b7aabdec8281601881518110611728576117286121b4565b6020026020010181815250507f091975bacf0ada60d1d74234f5b0dd101907c7e551ae0781a089dcda5c1196b081601981518110611768576117686121b4565b6020026020010181815250507f245a7f2ddbcde3908e753d23f06a6bae1c1d67eff272ba4e8d555f4b3da239bb81601a815181106117a8576117a86121b4565b6020026020010181815250507f0472dc4cb575930eec0a7ee33d45a0fbddb2f2ec5ea7675518401d0bad2e189381601b815181106117e8576117e86121b4565b6020026020010181815250507f09276c70842396c7eec8f7b3a3e4e15590c74e19d32ab2022800305affdd2c3f81601c81518110611828576118286121b4565b6020026020010181815250507f1206e46aae7d09875e8af32be487d040fe39f2006e5058c80c3fe2f8ae91e73081601d81518110611868576118686121b4565b6020026020010181815250507f2678cee9883dcf8c1432ce5971a316d1fe69d547a8489eea90951f1a90070b5681601e815181106118a8576118a86121b4565b6020026020010181815250507f150c153f55c5691daa41249331b7d0210a71bc5210b96c83caf003a2a060aef381601f815181106118e8576118e86121b4565b6020026020010181815250507f13c03c22214ff575363d9d0a4c7180b6dbb1099634497c2758d66ada01f5f9f581602081518110611928576119286121b4565b6020026020010181815250507f1f3126c203df110b9aa8228e7aa989398778bf2bcc837f72f48638a05a23521781602181518110611968576119686121b4565b6020026020010181815250507ef104efcb3a5c7d4d0937128f26d42b7cb50ffe189043d63022885d465649cd816022815181106119a7576119a76121b4565b6020026020010181815250507f07808a915a649bc47ac1e35e599c9bbc9567f7ff244c35e77d955578aceded39816023815181106119e7576119e76121b4565b6020026020010181815250507f115b5213e83a894b2f9b25ca1e8610aefedbacf6cbebc73e97347cd8068c724e81602481518110611a2757611a276121b4565b6020026020010181815250507f154b857b2c16dd9e359a6e92d2fd5b8c0218a7aa2a1dc3f5feafb2e556a5880581602581518110611a6757611a676121b4565b6020026020010181815250507f15936bcfb72d8e29f0000fd0a7c746b59723dba661ddf614fa6d3e719ef77af181602681518110611aa757611aa76121b4565b6020026020010181815250507f24eac9b8256688cd477a061cf3306a2cb304fb272c43e1b29702f1eb8273719081602781518110611ae757611ae76121b4565b6020026020010181815250507f17c715f4a81e124985344b5dfcfde6eff493a9b00ca6940032f5dc73194ad5b681602881518110611b2757611b276121b4565b6020026020010181815250507f1aac2b83f3c38043ba28a0c7a645bdabc659ee1d9df8a26a213812a86063003381602981518110611b6757611b676121b4565b6020026020010181815250507f035cb771f5494ad9935f9bfb285ef9c8c63b696a08d441553f5a1a344e0634af81602a81518110611ba757611ba76121b4565b6020026020010181815250507f0b39516f081e3e47459eddb1b30c9a2b89a6f90df8f61b3617109494d03d0b2b81602b81518110611be757611be76121b4565b6020026020010181815250507f1dff059f2d5debab61d2c8a3924e84193d9a1c66b643700fb88eb252e72ee13381602c81518110611c2757611c276121b4565b6020026020010181815250507f2e6df76c822a6ae67fcabd5724c411d9eeec767f28f5e5077d0357af878e441281602d81518110611c6757611c676121b4565b6020026020010181815250507f272979e6be70d9cd038dce81e676deb66952bfb8e80451d4ee56c64d275fa6fa81602e81518110611ca757611ca76121b4565b6020026020010181815250507f26ee6265cc07b2ea03a110ce8ee5ef7084e7b52dc460cc8f584a510fa50a66d981602f81518110611ce757611ce76121b4565b6020026020010181815250507f20f5a0ec328bd1552488cf2b915c9d3650a3b7f732feaf0728dc10e1299fd10581603081518110611d2757611d276121b4565b6020026020010181815250507f1e2fdbff6d2e1e74f62275e45c646d88789d0a56f6a1baa5ed64cf93b1786ce081603181518110611d6757611d676121b4565b6020026020010181815250507f2aa0fdb3e88027b19e88f09c3fae57b110860b4dd14ddbe994ffaeb1e4a95d3a81603281518110611da757611da76121b4565b6020026020010181815250507f1eeba159d9722c1f14ad7b1a8e32c72583c99dbfba304b42f5e28eef80845b2381603381518110611de757611de76121b4565b6020026020010181815250507f0d8cb308d4d405d440d889dc7a674d86ab88577ee226aed3c8509bcdcd29027a81603481518110611e2757611e276121b4565b6020026020010181815250507f0c93ed937f7b367565999133b5031116bd465f5609151fe15028e47d40d1957381603581518110611e6757611e676121b4565b6020026020010181815250507f185ab0007133aaa674abc89372e7573310a0f4a4ddf2c7853f344f2d154c399b81603681518110611ea757611ea76121b4565b6020026020010181815250507ede9ec4550a8a53333ec5d472e6719a94129c53136d39af2258741f81f4059681603781518110611ee657611ee66121b4565b6020026020010181815250507f07ac1dac81da1f60fb102473ef1c5e4eeb80eddc51a67337fb2aa62e8bff0cc381603881518110611f2657611f266121b4565b6020026020010181815250507f100a26fd172a1c45ef6af35d24a85b48d2d0c440b57b572edfe0894fbe30d2a181603981518110611f6657611f666121b4565b6020026020010181815250507f153f4c12a114750eb54295eddfa03ab849f68d9ce2b9383e401bb1dea9de6b8a81603a81518110611fa657611fa66121b4565b6020026020010181815250507f04e6ddf8743a43acdcd8c16b32baa814177f9db84e1233b0bab139584137a5a581603b81518110611fe657611fe66121b4565b6020026020010181815250507f21b03f45e202638c7774e2d27d3ff3cb2c8b4c59b78d54cd390a6530db7e04d381603c81518110612026576120266121b4565b6020026020010181815250507f169655b9dac7d5cb72b80477377b9db5b0905c428ea17cc43e7bc3dbf12d254e81603d81518110612066576120666121b4565b6020908102919091010152919050565b60008083601f84011261208857600080fd5b50813567ffffffffffffffff8111156120a057600080fd5b6020830191508360208260051b85010111156120bb57600080fd5b9250929050565b600080602083850312156120d557600080fd5b823567ffffffffffffffff8111156120ec57600080fd5b6120f885828601612076565b90969095509350505050565b6000806000806040858703121561211a57600080fd5b843567ffffffffffffffff8082111561213257600080fd5b61213e88838901612076565b9096509450602087013591508082111561215757600080fd5b5061216487828801612076565b95989497509550505050565b6020808252825182820181905260009190848201906040850190845b818110156121a85783518352928401929184019160010161218c565b50909695505050505050565b634e487b7160e01b600052603260045260246000fd5b634e487b7160e01b600052601160045260246000fd5b63ffffffff818116838216028082169190828114612200576122006121ca565b505092915050565b63ffffffff818116838216019080821115612225576122256121ca565b5092915050565b634e487b7160e01b600052604160045260246000fdfea164736f6c6343000817000a",
  "devdoc": {
    "kind": "dev",
    "methods": {
      "getVerificationKeys()": {
        "details": "returns the verification keys in the order that the verifier expects them: alpha, beta, gamma, delta, ICs.."
      },
      "isAliased(uint256[])": {
        "details": "return true if the public signal is aliased"
      }
    },
    "version": 1
  },
  "userdoc": {
    "kind": "user",
    "methods": {},
    "version": 1
  },
  "storageLayout": {
    "storage": [],
    "types": null
  }
}